{
  "address": "0x198729b9B0bA27207D8da8EDC440a1a0f66283d5",
  "abi": [
    {
      "inputs": [
        {
          "internalType": "address",
          "name": "_X_token_address",
          "type": "address"
        },
        {
          "internalType": "string",
          "name": "_custom_uri_base",
          "type": "string"
        }
      ],
      "stateMutability": "nonpayable",
      "type": "constructor"
    },
    {
      "anonymous": false,
      "inputs": [
        {
          "indexed": true,
          "internalType": "address",
          "name": "owner",
          "type": "address"
        },
        {
          "indexed": true,
          "internalType": "address",
          "name": "approved",
          "type": "address"
        },
        {
          "indexed": true,
          "internalType": "uint256",
          "name": "tokenId",
          "type": "uint256"
        }
      ],
      "name": "Approval",
      "type": "event"
    },
    {
      "anonymous": false,
      "inputs": [
        {
          "indexed": true,
          "internalType": "address",
          "name": "owner",
          "type": "address"
        },
        {
          "indexed": true,
          "internalType": "address",
          "name": "operator",
          "type": "address"
        },
        {
          "indexed": false,
          "internalType": "bool",
          "name": "approved",
          "type": "bool"
        }
      ],
      "name": "ApprovalForAll",
      "type": "event"
    },
    {
      "anonymous": false,
      "inputs": [
        {
          "indexed": true,
          "internalType": "address",
          "name": "from",
          "type": "address"
        },
        {
          "indexed": true,
          "internalType": "address",
          "name": "to",
          "type": "address"
        },
        {
          "indexed": true,
          "internalType": "uint256",
          "name": "tokenId",
          "type": "uint256"
        }
      ],
      "name": "Transfer",
      "type": "event"
    },
    {
      "inputs": [
        {
          "internalType": "address",
          "name": "",
          "type": "address"
        }
      ],
      "name": "allowlist",
      "outputs": [
        {
          "internalType": "bool",
          "name": "",
          "type": "bool"
        }
      ],
      "stateMutability": "view",
      "type": "function"
    },
    {
      "inputs": [
        {
          "internalType": "address",
          "name": "to",
          "type": "address"
        },
        {
          "internalType": "uint256",
          "name": "tokenId",
          "type": "uint256"
        }
      ],
      "name": "approve",
      "outputs": [],
      "stateMutability": "nonpayable",
      "type": "function"
    },
    {
      "inputs": [
        {
          "internalType": "address",
          "name": "owner",
          "type": "address"
        }
      ],
      "name": "balanceOf",
      "outputs": [
        {
          "internalType": "uint256",
          "name": "",
          "type": "uint256"
        }
      ],
      "stateMutability": "view",
      "type": "function"
    },
    {
      "inputs": [
        {
          "internalType": "uint256",
          "name": "tokenId",
          "type": "uint256"
        }
      ],
      "name": "getApproved",
      "outputs": [
        {
          "internalType": "address",
          "name": "",
          "type": "address"
        }
      ],
      "stateMutability": "view",
      "type": "function"
    },
    {
      "inputs": [
        {
          "internalType": "uint256",
          "name": "token_id",
          "type": "uint256"
        }
      ],
      "name": "getInviteHoldingAddress",
      "outputs": [
        {
          "internalType": "address",
          "name": "",
          "type": "address"
        }
      ],
      "stateMutability": "view",
      "type": "function"
    },
    {
      "inputs": [
        {
          "internalType": "address",
          "name": "owner",
          "type": "address"
        },
        {
          "internalType": "address",
          "name": "operator",
          "type": "address"
        }
      ],
      "name": "isApprovedForAll",
      "outputs": [
        {
          "internalType": "bool",
          "name": "",
          "type": "bool"
        }
      ],
      "stateMutability": "view",
      "type": "function"
    },
    {
      "inputs": [],
      "name": "lockURI",
      "outputs": [],
      "stateMutability": "nonpayable",
      "type": "function"
    },
    {
      "inputs": [],
      "name": "mintInviteNFT",
      "outputs": [
        {
          "internalType": "uint256",
          "name": "_nft_id",
          "type": "uint256"
        }
      ],
      "stateMutability": "nonpayable",
      "type": "function"
    },
    {
      "inputs": [],
      "name": "name",
      "outputs": [
        {
          "internalType": "string",
          "name": "",
          "type": "string"
        }
      ],
      "stateMutability": "view",
      "type": "function"
    },
    {
      "inputs": [
        {
          "internalType": "uint256",
          "name": "tokenId",
          "type": "uint256"
        }
      ],
      "name": "ownerOf",
      "outputs": [
        {
          "internalType": "address",
          "name": "",
          "type": "address"
        }
      ],
      "stateMutability": "view",
      "type": "function"
    },
    {
      "inputs": [
        {
          "internalType": "address",
          "name": "from",
          "type": "address"
        },
        {
          "internalType": "address",
          "name": "to",
          "type": "address"
        },
        {
          "internalType": "uint256",
          "name": "tokenId",
          "type": "uint256"
        }
      ],
      "name": "safeTransferFrom",
      "outputs": [],
      "stateMutability": "nonpayable",
      "type": "function"
    },
    {
      "inputs": [
        {
          "internalType": "address",
          "name": "from",
          "type": "address"
        },
        {
          "internalType": "address",
          "name": "to",
          "type": "address"
        },
        {
          "internalType": "uint256",
          "name": "tokenId",
          "type": "uint256"
        },
        {
          "internalType": "bytes",
          "name": "_data",
          "type": "bytes"
        }
      ],
      "name": "safeTransferFrom",
      "outputs": [],
      "stateMutability": "nonpayable",
      "type": "function"
    },
    {
      "inputs": [
        {
          "internalType": "address",
          "name": "operator",
          "type": "address"
        },
        {
          "internalType": "bool",
          "name": "approved",
          "type": "bool"
        }
      ],
      "name": "setApprovalForAll",
      "outputs": [],
      "stateMutability": "nonpayable",
      "type": "function"
    },
    {
      "inputs": [
        {
          "internalType": "bytes4",
          "name": "interfaceId",
          "type": "bytes4"
        }
      ],
      "name": "supportsInterface",
      "outputs": [
        {
          "internalType": "bool",
          "name": "",
          "type": "bool"
        }
      ],
      "stateMutability": "view",
      "type": "function"
    },
    {
      "inputs": [],
      "name": "symbol",
      "outputs": [
        {
          "internalType": "string",
          "name": "",
          "type": "string"
        }
      ],
      "stateMutability": "view",
      "type": "function"
    },
    {
      "inputs": [
        {
          "internalType": "uint256",
          "name": "token_id",
          "type": "uint256"
        }
      ],
      "name": "tokenURI",
      "outputs": [
        {
          "internalType": "string",
          "name": "_uri",
          "type": "string"
        }
      ],
      "stateMutability": "view",
      "type": "function"
    },
    {
      "inputs": [
        {
          "internalType": "address",
          "name": "from",
          "type": "address"
        },
        {
          "internalType": "address",
          "name": "to",
          "type": "address"
        },
        {
          "internalType": "uint256",
          "name": "tokenId",
          "type": "uint256"
        }
      ],
      "name": "transferFrom",
      "outputs": [],
      "stateMutability": "nonpayable",
      "type": "function"
    },
    {
      "inputs": [
        {
          "internalType": "address",
          "name": "_uri_admin",
          "type": "address"
        }
      ],
      "name": "updateURIAdmin",
      "outputs": [],
      "stateMutability": "nonpayable",
      "type": "function"
    },
    {
      "inputs": [
        {
          "internalType": "string",
          "name": "_custom_uri_base",
          "type": "string"
        }
      ],
      "name": "updateURIBase",
      "outputs": [],
      "stateMutability": "nonpayable",
      "type": "function"
    },
    {
      "inputs": [
        {
          "internalType": "uint256",
          "name": "token_id",
          "type": "uint256"
        }
      ],
      "name": "useAndGenerateInviteNFT",
      "outputs": [],
      "stateMutability": "nonpayable",
      "type": "function"
    }
  ],
  "transactionHash": "0x1f515b5a24dc11d1fca7b7c88fd9a953df3c8c6a879d51950ff48fa6bdc3e890",
  "args": [
    "0x5535196a216AC1306b0044F574fdfb6Cd4032479",
    "https://picsum.photos/200/300?random="
  ],
  "solcInputHash": "93b577060e28f61b5505927a0f9fc90d",
  "bytecode": "0x60806040523480156200001157600080fd5b506040516200486738038062004867833981810160405281019062000037919062000300565b6040518060400160405280600a81526020017f57726170706564202458000000000000000000000000000000000000000000008152506040518060400160405280600281526020017f77580000000000000000000000000000000000000000000000000000000000008152508160009080519060200190620000bb929190620001bb565b508060019080519060200190620000d4929190620001bb565b50505081600b60006101000a81548173ffffffffffffffffffffffffffffffffffffffff021916908373ffffffffffffffffffffffffffffffffffffffff16021790555081600c60006101000a81548173ffffffffffffffffffffffffffffffffffffffff021916908373ffffffffffffffffffffffffffffffffffffffff16021790555033600860006101000a81548173ffffffffffffffffffffffffffffffffffffffff021916908373ffffffffffffffffffffffffffffffffffffffff1602179055508060099080519060200190620001b2929190620001bb565b50505062000538565b828054620001c9906200042f565b90600052602060002090601f016020900481019282620001ed576000855562000239565b82601f106200020857805160ff191683800117855562000239565b8280016001018555821562000239579182015b82811115620002385782518255916020019190600101906200021b565b5b5090506200024891906200024c565b5090565b5b80821115620002675760008160009055506001016200024d565b5090565b6000620002826200027c846200038f565b62000366565b905082815260208101848484011115620002a157620002a0620004fe565b5b620002ae848285620003f9565b509392505050565b600081519050620002c7816200051e565b92915050565b600082601f830112620002e557620002e4620004f9565b5b8151620002f78482602086016200026b565b91505092915050565b600080604083850312156200031a576200031962000508565b5b60006200032a85828601620002b6565b925050602083015167ffffffffffffffff8111156200034e576200034d62000503565b5b6200035c85828601620002cd565b9150509250929050565b60006200037262000385565b905062000380828262000465565b919050565b6000604051905090565b600067ffffffffffffffff821115620003ad57620003ac620004ca565b5b620003b8826200050d565b9050602081019050919050565b6000620003d282620003d9565b9050919050565b600073ffffffffffffffffffffffffffffffffffffffff82169050919050565b60005b8381101562000419578082015181840152602081019050620003fc565b8381111562000429576000848401525b50505050565b600060028204905060018216806200044857607f821691505b602082108114156200045f576200045e6200049b565b5b50919050565b62000470826200050d565b810181811067ffffffffffffffff82111715620004925762000491620004ca565b5b80604052505050565b7f4e487b7100000000000000000000000000000000000000000000000000000000600052602260045260246000fd5b7f4e487b7100000000000000000000000000000000000000000000000000000000600052604160045260246000fd5b600080fd5b600080fd5b600080fd5b600080fd5b6000601f19601f8301169050919050565b6200052981620003c5565b81146200053557600080fd5b50565b61431f80620005486000396000f3fe60806040523480156200001157600080fd5b5060043610620001485760003560e01c806395d89b4111620000bd578063b88d4fde116200007b578063b88d4fde14620003a1578063c87b56dd14620003c1578063cb2009c114620003f7578063e985e9c51462000419578063e98963a5146200044f5762000148565b806395d89b4114620002d3578063a22027a514620002f5578063a22cb4651462000315578063a7cd52cb1462000335578063b767d1aa146200036b5762000148565b806323b872dd116200010b57806323b872dd146200021b57806342842e0e146200023b5780636352211e146200025b57806370a0823114620002915780638e021c0614620002c75762000148565b806301ffc9a7146200014d57806306fdde031462000183578063081812fc14620001a5578063095ea7b314620001db5780631924d40614620001fb575b600080fd5b6200016b6004803603810190620001659190620027cb565b6200046f565b6040516200017a919062002ec9565b60405180910390f35b6200018d62000555565b6040516200019c919062002ee6565b60405180910390f35b620001c36004803603810190620001bd919062002880565b620005ef565b604051620001d2919062002dee565b60405180910390f35b620001f96004803603810190620001f3919062002752565b62000679565b005b620002196004803603810190620002139190620025a5565b620007a2565b005b6200023960048036038101906200023391906200261e565b620008ec565b005b6200025960048036038101906200025391906200261e565b62000955565b005b62000279600480360381019062000273919062002880565b62000977565b60405162000288919062002dee565b60405180910390f35b620002af6004803603810190620002a99190620025a5565b62000a2c565b604051620002be9190620031f6565b60405180910390f35b620002d162000ae7565b005b620002dd62000bbe565b604051620002ec919062002ee6565b60405180910390f35b6200031360048036038101906200030d919062002880565b62000c58565b005b6200033360048036038101906200032d91906200270b565b62000fd0565b005b6200035360048036038101906200034d9190620025a5565b6200115c565b60405162000362919062002ec9565b60405180910390f35b62000389600480360381019062000383919062002880565b6200117c565b60405162000398919062002dee565b60405180910390f35b620003bf6004803603810190620003b991906200267a565b620011b9565b005b620003df6004803603810190620003d9919062002880565b62001224565b604051620003ee919062002ee6565b60405180910390f35b62000401620012a9565b604051620004109190620031f6565b60405180910390f35b620004376004803603810190620004319190620025d7565b62001662565b60405162000446919062002ec9565b60405180910390f35b6200046d60048036038101906200046791906200282f565b620016f6565b005b60007f80ac58cd000000000000000000000000000000000000000000000000000000007bffffffffffffffffffffffffffffffffffffffffffffffffffffffff1916827bffffffffffffffffffffffffffffffffffffffffffffffffffffffff191614806200053b57507f5b5e139f000000000000000000000000000000000000000000000000000000007bffffffffffffffffffffffffffffffffffffffffffffffffffffffff1916827bffffffffffffffffffffffffffffffffffffffffffffffffffffffff1916145b806200054e57506200054d82620017a5565b5b9050919050565b60606000805462000566906200349f565b80601f016020809104026020016040519081016040528092919081815260200182805462000594906200349f565b8015620005e55780601f10620005b957610100808354040283529160200191620005e5565b820191906000526020600020905b815481529060010190602001808311620005c757829003601f168201915b5050505050905090565b6000620005fc826200180f565b6200063e576040517f08c379a00000000000000000000000000000000000000000000000000000000081526004016200063590620030e6565b60405180910390fd5b6004600083815260200190815260200160002060009054906101000a900473ffffffffffffffffffffffffffffffffffffffff169050919050565b6000620006868262000977565b90508073ffffffffffffffffffffffffffffffffffffffff168373ffffffffffffffffffffffffffffffffffffffff161415620006fa576040517f08c379a0000000000000000000000000000000000000000000000000000000008152600401620006f1906200314c565b60405180910390fd5b8073ffffffffffffffffffffffffffffffffffffffff166200071b6200187b565b73ffffffffffffffffffffffffffffffffffffffff1614806200074f57506200074e81620007486200187b565b62001662565b5b62000791576040517f08c379a0000000000000000000000000000000000000000000000000000000008152600401620007889062002ff8565b60405180910390fd5b6200079d838362001883565b505050565b600860009054906101000a900473ffffffffffffffffffffffffffffffffffffffff1673ffffffffffffffffffffffffffffffffffffffff163373ffffffffffffffffffffffffffffffffffffffff161462000835576040517f08c379a00000000000000000000000000000000000000000000000000000000081526004016200082c9062003080565b60405180910390fd5b600073ffffffffffffffffffffffffffffffffffffffff168173ffffffffffffffffffffffffffffffffffffffff161415620008a8576040517f08c379a00000000000000000000000000000000000000000000000000000000081526004016200089f90620030a2565b60405180910390fd5b80600860006101000a81548173ffffffffffffffffffffffffffffffffffffffff021916908373ffffffffffffffffffffffffffffffffffffffff16021790555050565b62000901620008fa6200187b565b826200193e565b62000943576040517f08c379a00000000000000000000000000000000000000000000000000000000081526004016200093a9062003190565b60405180910390fd5b6200095083838362001a29565b505050565b6200097283838360405180602001604052806000815250620011b9565b505050565b6000806002600084815260200190815260200160002060009054906101000a900473ffffffffffffffffffffffffffffffffffffffff169050600073ffffffffffffffffffffffffffffffffffffffff168173ffffffffffffffffffffffffffffffffffffffff16141562000a23576040517f08c379a000000000000000000000000000000000000000000000000000000000815260040162000a1a906200305e565b60405180910390fd5b80915050919050565b60008073ffffffffffffffffffffffffffffffffffffffff168273ffffffffffffffffffffffffffffffffffffffff16141562000aa0576040517f08c379a000000000000000000000000000000000000000000000000000000000815260040162000a97906200303c565b60405180910390fd5b600360008373ffffffffffffffffffffffffffffffffffffffff1673ffffffffffffffffffffffffffffffffffffffff168152602001908152602001600020549050919050565b600860009054906101000a900473ffffffffffffffffffffffffffffffffffffffff1673ffffffffffffffffffffffffffffffffffffffff163373ffffffffffffffffffffffffffffffffffffffff161462000b7a576040517f08c379a000000000000000000000000000000000000000000000000000000000815260040162000b719062003080565b60405180910390fd5b6000600860006101000a81548173ffffffffffffffffffffffffffffffffffffffff021916908373ffffffffffffffffffffffffffffffffffffffff160217905550565b60606001805462000bcf906200349f565b80601f016020809104026020016040519081016040528092919081815260200182805462000bfd906200349f565b801562000c4e5780601f1062000c225761010080835404028352916020019162000c4e565b820191906000526020600020905b81548152906001019060200180831162000c3057829003601f168201915b5050505050905090565b8062000c64816200180f565b62000ca6576040517f08c379a000000000000000000000000000000000000000000000000000000000815260040162000c9d906200316e565b60405180910390fd5b3373ffffffffffffffffffffffffffffffffffffffff1662000cc88262000977565b73ffffffffffffffffffffffffffffffffffffffff161462000d21576040517f08c379a000000000000000000000000000000000000000000000000000000000815260040162000d1890620031d4565b60405180910390fd5b6001600b60009054906101000a900473ffffffffffffffffffffffffffffffffffffffff1673ffffffffffffffffffffffffffffffffffffffff1663dd62ed3e33306040518363ffffffff1660e01b815260040162000d8292919062002e0b565b60206040518083038186803b15801562000d9b57600080fd5b505afa15801562000db0573d6000803e3d6000fd5b505050506040513d601f19601f8201168201806040525081019062000dd69190620028b2565b101562000e1a576040517f08c379a000000000000000000000000000000000000000000000000000000000815260040162000e1190620031b2565b60405180910390fd5b60001515600c60009054906101000a900473ffffffffffffffffffffffffffffffffffffffff1673ffffffffffffffffffffffffffffffffffffffff1663a7cd52cb336040518263ffffffff1660e01b815260040162000e7b919062002dee565b60206040518083038186803b15801562000e9457600080fd5b505afa15801562000ea9573d6000803e3d6000fd5b505050506040513d601f19601f8201168201806040525081019062000ecf919062002799565b15151462000f14576040517f08c379a000000000000000000000000000000000000000000000000000000000815260040162000f0b906200301a565b60405180910390fd5b600a600083815260200190815260200160002060009054906101000a900473ffffffffffffffffffffffffffffffffffffffff1673ffffffffffffffffffffffffffffffffffffffff166395a2251f336040518263ffffffff1660e01b815260040162000f82919062002dee565b600060405180830381600087803b15801562000f9d57600080fd5b505af115801562000fb2573d6000803e3d6000fd5b5050505062000fc0620012a9565b5062000fcc8262001c95565b5050565b62000fda6200187b565b73ffffffffffffffffffffffffffffffffffffffff168273ffffffffffffffffffffffffffffffffffffffff1614156200104b576040517f08c379a0000000000000000000000000000000000000000000000000000000008152600401620010429062002f70565b60405180910390fd5b80600560006200105a6200187b565b73ffffffffffffffffffffffffffffffffffffffff1673ffffffffffffffffffffffffffffffffffffffff16815260200190815260200160002060008473ffffffffffffffffffffffffffffffffffffffff1673ffffffffffffffffffffffffffffffffffffffff16815260200190815260200160002060006101000a81548160ff0219169083151502179055508173ffffffffffffffffffffffffffffffffffffffff16620011096200187b565b73ffffffffffffffffffffffffffffffffffffffff167f17307eab39ab6107e8899845ad3d59bd9653f200f220920489ca2b5937696c318360405162001150919062002ec9565b60405180910390a35050565b60066020528060005260406000206000915054906101000a900460ff1681565b6000600a600083815260200190815260200160002060009054906101000a900473ffffffffffffffffffffffffffffffffffffffff169050919050565b620011ce620011c76200187b565b836200193e565b62001210576040517f08c379a0000000000000000000000000000000000000000000000000000000008152600401620012079062003190565b60405180910390fd5b6200121e8484848462001dae565b50505050565b606062001231826200180f565b62001273576040517f08c379a00000000000000000000000000000000000000000000000000000000081526004016200126a906200312a565b60405180910390fd5b6009620012808362001e11565b6040516020016200129392919062002dc6565b6040516020818303038152906040529050919050565b60006001600b60009054906101000a900473ffffffffffffffffffffffffffffffffffffffff1673ffffffffffffffffffffffffffffffffffffffff1663dd62ed3e33306040518363ffffffff1660e01b81526004016200130c92919062002e0b565b60206040518083038186803b1580156200132557600080fd5b505afa1580156200133a573d6000803e3d6000fd5b505050506040513d601f19601f82011682018060405250810190620013609190620028b2565b1015620013a4576040517f08c379a00000000000000000000000000000000000000000000000000000000081526004016200139b90620031b2565b60405180910390fd5b6001600b60009054906101000a900473ffffffffffffffffffffffffffffffffffffffff1673ffffffffffffffffffffffffffffffffffffffff166370a08231336040518263ffffffff1660e01b815260040162001403919062002dee565b60206040518083038186803b1580156200141c57600080fd5b505afa15801562001431573d6000803e3d6000fd5b505050506040513d601f19601f82011682018060405250810190620014579190620028b2565b10156200149b576040517f08c379a0000000000000000000000000000000000000000000000000000000008152600401620014929062002f92565b60405180910390fd5b620014a7600762001f8b565b6000620014b5600762001fa1565b9050620014c3338262001faf565b600b60009054906101000a900473ffffffffffffffffffffffffffffffffffffffff16604051620014f4906200234a565b62001500919062002dee565b604051809103906000f0801580156200151d573d6000803e3d6000fd5b50600a600083815260200190815260200160002060006101000a81548173ffffffffffffffffffffffffffffffffffffffff021916908373ffffffffffffffffffffffffffffffffffffffff160217905550600b60009054906101000a900473ffffffffffffffffffffffffffffffffffffffff1673ffffffffffffffffffffffffffffffffffffffff166323b872dd33600a600085815260200190815260200160002060009054906101000a900473ffffffffffffffffffffffffffffffffffffffff1660016040518463ffffffff1660e01b8152600401620016049392919062002e38565b602060405180830381600087803b1580156200161f57600080fd5b505af115801562001634573d6000803e3d6000fd5b505050506040513d601f19601f820116820180604052508101906200165a919062002799565b508091505090565b6000600560008473ffffffffffffffffffffffffffffffffffffffff1673ffffffffffffffffffffffffffffffffffffffff16815260200190815260200160002060008373ffffffffffffffffffffffffffffffffffffffff1673ffffffffffffffffffffffffffffffffffffffff16815260200190815260200160002060009054906101000a900460ff16905092915050565b600860009054906101000a900473ffffffffffffffffffffffffffffffffffffffff1673ffffffffffffffffffffffffffffffffffffffff163373ffffffffffffffffffffffffffffffffffffffff161462001789576040517f08c379a0000000000000000000000000000000000000000000000000000000008152600401620017809062002fd6565b60405180910390fd5b8060099080519060200190620017a192919062002358565b5050565b60007f01ffc9a7000000000000000000000000000000000000000000000000000000007bffffffffffffffffffffffffffffffffffffffffffffffffffffffff1916827bffffffffffffffffffffffffffffffffffffffffffffffffffffffff1916149050919050565b60008073ffffffffffffffffffffffffffffffffffffffff166002600084815260200190815260200160002060009054906101000a900473ffffffffffffffffffffffffffffffffffffffff1673ffffffffffffffffffffffffffffffffffffffff1614159050919050565b600033905090565b816004600083815260200190815260200160002060006101000a81548173ffffffffffffffffffffffffffffffffffffffff021916908373ffffffffffffffffffffffffffffffffffffffff160217905550808273ffffffffffffffffffffffffffffffffffffffff16620018f88362000977565b73ffffffffffffffffffffffffffffffffffffffff167f8c5be1e5ebec7d5bd14f71427d1e84f3dd0314c0f7b2291e5b200ac8c7c3b92560405160405180910390a45050565b60006200194b826200180f565b6200198d576040517f08c379a0000000000000000000000000000000000000000000000000000000008152600401620019849062002fb4565b60405180910390fd5b60006200199a8362000977565b90508073ffffffffffffffffffffffffffffffffffffffff168473ffffffffffffffffffffffffffffffffffffffff16148062001a0c57508373ffffffffffffffffffffffffffffffffffffffff16620019f484620005ef565b73ffffffffffffffffffffffffffffffffffffffff16145b8062001a20575062001a1f818562001662565b5b91505092915050565b8273ffffffffffffffffffffffffffffffffffffffff1662001a4b8262000977565b73ffffffffffffffffffffffffffffffffffffffff161462001aa4576040517f08c379a000000000000000000000000000000000000000000000000000000000815260040162001a9b9062003108565b60405180910390fd5b600073ffffffffffffffffffffffffffffffffffffffff168273ffffffffffffffffffffffffffffffffffffffff16141562001b17576040517f08c379a000000000000000000000000000000000000000000000000000000000815260040162001b0e9062002f4e565b60405180910390fd5b62001b2483838362002189565b62001b3160008262001883565b6001600360008573ffffffffffffffffffffffffffffffffffffffff1673ffffffffffffffffffffffffffffffffffffffff168152602001908152602001600020600082825462001b83919062003395565b925050819055506001600360008473ffffffffffffffffffffffffffffffffffffffff1673ffffffffffffffffffffffffffffffffffffffff168152602001908152602001600020600082825462001bdc919062003300565b92505081905550816002600083815260200190815260200160002060006101000a81548173ffffffffffffffffffffffffffffffffffffffff021916908373ffffffffffffffffffffffffffffffffffffffff160217905550808273ffffffffffffffffffffffffffffffffffffffff168473ffffffffffffffffffffffffffffffffffffffff167fddf252ad1be2c89b69c2b068fc378daa952ba7f163c4a11628f55a4df523b3ef60405160405180910390a4505050565b600062001ca28262000977565b905062001cb28160008462002189565b62001cbf60008362001883565b6001600360008373ffffffffffffffffffffffffffffffffffffffff1673ffffffffffffffffffffffffffffffffffffffff168152602001908152602001600020600082825462001d11919062003395565b925050819055506002600083815260200190815260200160002060006101000a81549073ffffffffffffffffffffffffffffffffffffffff021916905581600073ffffffffffffffffffffffffffffffffffffffff168273ffffffffffffffffffffffffffffffffffffffff167fddf252ad1be2c89b69c2b068fc378daa952ba7f163c4a11628f55a4df523b3ef60405160405180910390a45050565b62001dbb84848462001a29565b62001dc9848484846200218e565b62001e0b576040517f08c379a000000000000000000000000000000000000000000000000000000000815260040162001e029062002f0a565b60405180910390fd5b50505050565b6060600082141562001e5b576040518060400160405280600181526020017f3000000000000000000000000000000000000000000000000000000000000000815250905062001f86565b600082905060005b6000821462001e9357808062001e79906200350b565b915050600a8262001e8b91906200335d565b915062001e63565b60008167ffffffffffffffff81111562001eb25762001eb16200364d565b5b6040519080825280601f01601f19166020018201604052801562001ee55781602001600182028036833780820191505090505b5090505b6000851462001f7f5760018262001f01919062003395565b9150600a8562001f12919062003559565b603062001f20919062003300565b60f81b81838151811062001f395762001f386200361e565b5b60200101907effffffffffffffffffffffffffffffffffffffffffffffffffffffffffffff1916908160001a905350600a8562001f7791906200335d565b945062001ee9565b8093505050505b919050565b6001816000016000828254019250508190555050565b600081600001549050919050565b600073ffffffffffffffffffffffffffffffffffffffff168273ffffffffffffffffffffffffffffffffffffffff16141562002022576040517f08c379a00000000000000000000000000000000000000000000000000000000081526004016200201990620030c4565b60405180910390fd5b6200202d816200180f565b1562002070576040517f08c379a0000000000000000000000000000000000000000000000000000000008152600401620020679062002f2c565b60405180910390fd5b6200207e6000838362002189565b6001600360008473ffffffffffffffffffffffffffffffffffffffff1673ffffffffffffffffffffffffffffffffffffffff1681526020019081526020016000206000828254620020d0919062003300565b92505081905550816002600083815260200190815260200160002060006101000a81548173ffffffffffffffffffffffffffffffffffffffff021916908373ffffffffffffffffffffffffffffffffffffffff160217905550808273ffffffffffffffffffffffffffffffffffffffff16600073ffffffffffffffffffffffffffffffffffffffff167fddf252ad1be2c89b69c2b068fc378daa952ba7f163c4a11628f55a4df523b3ef60405160405180910390a45050565b505050565b6000620021b18473ffffffffffffffffffffffffffffffffffffffff1662002337565b156200232a578373ffffffffffffffffffffffffffffffffffffffff1663150b7a02620021dd6200187b565b8786866040518563ffffffff1660e01b815260040162002201949392919062002e75565b602060405180830381600087803b1580156200221c57600080fd5b505af19250505080156200225057506040513d601f19601f820116820180604052508101906200224d9190620027fd565b60015b620022d9573d806000811462002283576040519150601f19603f3d011682016040523d82523d6000602084013e62002288565b606091505b50600081511415620022d1576040517f08c379a0000000000000000000000000000000000000000000000000000000008152600401620022c89062002f0a565b60405180910390fd5b805181602001fd5b63150b7a0260e01b7bffffffffffffffffffffffffffffffffffffffffffffffffffffffff1916817bffffffffffffffffffffffffffffffffffffffffffffffffffffffff1916149150506200232f565b600190505b949350505050565b600080823b905060008111915050919050565b6106208062003cca83390190565b82805462002366906200349f565b90600052602060002090601f0160209004810192826200238a5760008555620023d6565b82601f10620023a557805160ff1916838001178555620023d6565b82800160010185558215620023d6579182015b82811115620023d5578251825591602001919060010190620023b8565b5b509050620023e59190620023e9565b5090565b5b8082111562002404576000816000905550600101620023ea565b5090565b60006200241f62002419846200323c565b62003213565b9050828152602081018484840111156200243e576200243d62003681565b5b6200244b8482856200345a565b509392505050565b60006200246a620024648462003272565b62003213565b90508281526020810184848401111562002489576200248862003681565b5b620024968482856200345a565b509392505050565b600081359050620024af8162003c61565b92915050565b600081359050620024c68162003c7b565b92915050565b600081519050620024dd8162003c7b565b92915050565b600081359050620024f48162003c95565b92915050565b6000815190506200250b8162003c95565b92915050565b600082601f8301126200252957620025286200367c565b5b81356200253b84826020860162002408565b91505092915050565b600082601f8301126200255c576200255b6200367c565b5b81356200256e84826020860162002453565b91505092915050565b600081359050620025888162003caf565b92915050565b6000815190506200259f8162003caf565b92915050565b600060208284031215620025be57620025bd6200368b565b5b6000620025ce848285016200249e565b91505092915050565b60008060408385031215620025f157620025f06200368b565b5b600062002601858286016200249e565b925050602062002614858286016200249e565b9150509250929050565b6000806000606084860312156200263a57620026396200368b565b5b60006200264a868287016200249e565b93505060206200265d868287016200249e565b9250506040620026708682870162002577565b9150509250925092565b600080600080608085870312156200269757620026966200368b565b5b6000620026a7878288016200249e565b9450506020620026ba878288016200249e565b9350506040620026cd8782880162002577565b925050606085013567ffffffffffffffff811115620026f157620026f062003686565b5b620026ff8782880162002511565b91505092959194509250565b600080604083850312156200272557620027246200368b565b5b600062002735858286016200249e565b92505060206200274885828601620024b5565b9150509250929050565b600080604083850312156200276c576200276b6200368b565b5b60006200277c858286016200249e565b92505060206200278f8582860162002577565b9150509250929050565b600060208284031215620027b257620027b16200368b565b5b6000620027c284828501620024cc565b91505092915050565b600060208284031215620027e457620027e36200368b565b5b6000620027f484828501620024e3565b91505092915050565b6000602082840312156200281657620028156200368b565b5b60006200282684828501620024fa565b91505092915050565b6000602082840312156200284857620028476200368b565b5b600082013567ffffffffffffffff81111562002869576200286862003686565b5b620028778482850162002544565b91505092915050565b6000602082840312156200289957620028986200368b565b5b6000620028a98482850162002577565b91505092915050565b600060208284031215620028cb57620028ca6200368b565b5b6000620028db848285016200258e565b91505092915050565b620028ef81620033d0565b82525050565b6200290081620033e4565b82525050565b60006200291382620032bd565b6200291f8185620032d3565b93506200293181856020860162003469565b6200293c8162003690565b840191505092915050565b620029528162003446565b82525050565b60006200296582620032c8565b620029718185620032e4565b93506200298381856020860162003469565b6200298e8162003690565b840191505092915050565b6000620029a682620032c8565b620029b28185620032f5565b9350620029c481856020860162003469565b80840191505092915050565b60008154620029df816200349f565b620029eb8186620032f5565b9450600182166000811462002a09576001811462002a1b5762002a52565b60ff1983168652818601935062002a52565b62002a2685620032a8565b60005b8381101562002a4a5781548189015260018201915060208101905062002a29565b838801955050505b50505092915050565b600062002a6a603283620032e4565b915062002a7782620036a1565b604082019050919050565b600062002a91601c83620032e4565b915062002a9e82620036f0565b602082019050919050565b600062002ab8602483620032e4565b915062002ac58262003719565b604082019050919050565b600062002adf601983620032e4565b915062002aec8262003768565b602082019050919050565b600062002b06601883620032e4565b915062002b138262003791565b602082019050919050565b600062002b2d602c83620032e4565b915062002b3a82620037ba565b604082019050919050565b600062002b54602083620032e4565b915062002b618262003809565b602082019050919050565b600062002b7b603883620032e4565b915062002b888262003832565b604082019050919050565b600062002ba2604083620032e4565b915062002baf8262003881565b604082019050919050565b600062002bc9602a83620032e4565b915062002bd682620038d0565b604082019050919050565b600062002bf0602983620032e4565b915062002bfd826200391f565b604082019050919050565b600062002c17602483620032e4565b915062002c24826200396e565b604082019050919050565b600062002c3e603383620032e4565b915062002c4b82620039bd565b604082019050919050565b600062002c65602083620032e4565b915062002c728262003a0c565b602082019050919050565b600062002c8c602c83620032e4565b915062002c998262003a35565b604082019050919050565b600062002cb3602983620032e4565b915062002cc08262003a84565b604082019050919050565b600062002cda602f83620032e4565b915062002ce78262003ad3565b604082019050919050565b600062002d01602183620032e4565b915062002d0e8262003b22565b604082019050919050565b600062002d28601983620032e4565b915062002d358262003b71565b602082019050919050565b600062002d4f603183620032e4565b915062002d5c8262003b9a565b604082019050919050565b600062002d76603083620032e4565b915062002d838262003be9565b604082019050919050565b600062002d9d601783620032e4565b915062002daa8262003c38565b602082019050919050565b62002dc0816200343c565b82525050565b600062002dd48285620029d0565b915062002de2828462002999565b91508190509392505050565b600060208201905062002e056000830184620028e4565b92915050565b600060408201905062002e226000830185620028e4565b62002e316020830184620028e4565b9392505050565b600060608201905062002e4f6000830186620028e4565b62002e5e6020830185620028e4565b62002e6d604083018462002947565b949350505050565b600060808201905062002e8c6000830187620028e4565b62002e9b6020830186620028e4565b62002eaa604083018562002db5565b818103606083015262002ebe818462002906565b905095945050505050565b600060208201905062002ee06000830184620028f5565b92915050565b6000602082019050818103600083015262002f02818462002958565b905092915050565b6000602082019050818103600083015262002f258162002a5b565b9050919050565b6000602082019050818103600083015262002f478162002a82565b9050919050565b6000602082019050818103600083015262002f698162002aa9565b9050919050565b6000602082019050818103600083015262002f8b8162002ad0565b9050919050565b6000602082019050818103600083015262002fad8162002af7565b9050919050565b6000602082019050818103600083015262002fcf8162002b1e565b9050919050565b6000602082019050818103600083015262002ff18162002b45565b9050919050565b60006020820190508181036000830152620030138162002b6c565b9050919050565b60006020820190508181036000830152620030358162002b93565b9050919050565b60006020820190508181036000830152620030578162002bba565b9050919050565b60006020820190508181036000830152620030798162002be1565b9050919050565b600060208201905081810360008301526200309b8162002c08565b9050919050565b60006020820190508181036000830152620030bd8162002c2f565b9050919050565b60006020820190508181036000830152620030df8162002c56565b9050919050565b60006020820190508181036000830152620031018162002c7d565b9050919050565b60006020820190508181036000830152620031238162002ca4565b9050919050565b60006020820190508181036000830152620031458162002ccb565b9050919050565b60006020820190508181036000830152620031678162002cf2565b9050919050565b60006020820190508181036000830152620031898162002d19565b9050919050565b60006020820190508181036000830152620031ab8162002d40565b9050919050565b60006020820190508181036000830152620031cd8162002d67565b9050919050565b60006020820190508181036000830152620031ef8162002d8e565b9050919050565b60006020820190506200320d600083018462002db5565b92915050565b60006200321f62003232565b90506200322d8282620034d5565b919050565b6000604051905090565b600067ffffffffffffffff8211156200325a57620032596200364d565b5b620032658262003690565b9050602081019050919050565b600067ffffffffffffffff82111562003290576200328f6200364d565b5b6200329b8262003690565b9050602081019050919050565b60008190508160005260206000209050919050565b600081519050919050565b600081519050919050565b600082825260208201905092915050565b600082825260208201905092915050565b600081905092915050565b60006200330d826200343c565b91506200331a836200343c565b9250827fffffffffffffffffffffffffffffffffffffffffffffffffffffffffffffffff0382111562003352576200335162003591565b5b828201905092915050565b60006200336a826200343c565b915062003377836200343c565b9250826200338a5762003389620035c0565b5b828204905092915050565b6000620033a2826200343c565b9150620033af836200343c565b925082821015620033c557620033c462003591565b5b828203905092915050565b6000620033dd826200341c565b9050919050565b60008115159050919050565b60007fffffffff0000000000000000000000000000000000000000000000000000000082169050919050565b600073ffffffffffffffffffffffffffffffffffffffff82169050919050565b6000819050919050565b600062003453826200343c565b9050919050565b82818337600083830152505050565b60005b83811015620034895780820151818401526020810190506200346c565b8381111562003499576000848401525b50505050565b60006002820490506001821680620034b857607f821691505b60208210811415620034cf57620034ce620035ef565b5b50919050565b620034e08262003690565b810181811067ffffffffffffffff821117156200350257620035016200364d565b5b80604052505050565b600062003518826200343c565b91507fffffffffffffffffffffffffffffffffffffffffffffffffffffffffffffffff8214156200354e576200354d62003591565b5b600182019050919050565b600062003566826200343c565b915062003573836200343c565b925082620035865762003585620035c0565b5b828206905092915050565b7f4e487b7100000000000000000000000000000000000000000000000000000000600052601160045260246000fd5b7f4e487b7100000000000000000000000000000000000000000000000000000000600052601260045260246000fd5b7f4e487b7100000000000000000000000000000000000000000000000000000000600052602260045260246000fd5b7f4e487b7100000000000000000000000000000000000000000000000000000000600052603260045260246000fd5b7f4e487b7100000000000000000000000000000000000000000000000000000000600052604160045260246000fd5b600080fd5b600080fd5b600080fd5b600080fd5b6000601f19601f8301169050919050565b7f4552433732313a207472616e7366657220746f206e6f6e20455243373231526560008201527f63656976657220696d706c656d656e7465720000000000000000000000000000602082015250565b7f4552433732313a20746f6b656e20616c7265616479206d696e74656400000000600082015250565b7f4552433732313a207472616e7366657220746f20746865207a65726f2061646460008201527f7265737300000000000000000000000000000000000000000000000000000000602082015250565b7f4552433732313a20617070726f766520746f2063616c6c657200000000000000600082015250565b7f596f75206e656564206174206c65617374202e30312024580000000000000000600082015250565b7f4552433732313a206f70657261746f7220717565727920666f72206e6f6e657860008201527f697374656e7420746f6b656e0000000000000000000000000000000000000000602082015250565b7f596f75206d75737420626520746865206f776e657220746f20646f2074686174600082015250565b7f4552433732313a20617070726f76652063616c6c6572206973206e6f74206f7760008201527f6e6572206e6f7220617070726f76656420666f7220616c6c0000000000000000602082015250565b7f596f7520616c7265616479207370656e7420796f757220696e766974652e205960008201527f6f75206e65656420746f2073656c6c2074686973204e465420696e7374656164602082015250565b7f4552433732313a2062616c616e636520717565727920666f7220746865207a6560008201527f726f206164647265737300000000000000000000000000000000000000000000602082015250565b7f4552433732313a206f776e657220717565727920666f72206e6f6e657869737460008201527f656e7420746f6b656e0000000000000000000000000000000000000000000000602082015250565b7f596f75206d75737420626520746865207572695f61646d696e20746f20646f2060008201527f7468617400000000000000000000000000000000000000000000000000000000602082015250565b7f596f752063616e6e6f74206368616e676520746865207572695f61646d696e2060008201527f746f20616e20656d707479206164647265737300000000000000000000000000602082015250565b7f4552433732313a206d696e7420746f20746865207a65726f2061646472657373600082015250565b7f4552433732313a20617070726f76656420717565727920666f72206e6f6e657860008201527f697374656e7420746f6b656e0000000000000000000000000000000000000000602082015250565b7f4552433732313a207472616e73666572206f6620746f6b656e2074686174206960008201527f73206e6f74206f776e0000000000000000000000000000000000000000000000602082015250565b7f4552433732314d657461646174613a2055524920717565727920666f72206e6f60008201527f6e6578697374656e7420746f6b656e0000000000000000000000000000000000602082015250565b7f4552433732313a20617070726f76616c20746f2063757272656e74206f776e6560008201527f7200000000000000000000000000000000000000000000000000000000000000602082015250565b7f54686174204e4654206e6f206c6f6e6765722065786973747300000000000000600082015250565b7f4552433732313a207472616e736665722063616c6c6572206973206e6f74206f60008201527f776e6572206e6f7220617070726f766564000000000000000000000000000000602082015250565b7f5468697320636f6e7472616374206973206e6f7420617070726f76656420746f60008201527f207472616e73666572202e303120245800000000000000000000000000000000602082015250565b7f596f7520646f206e6f74206f776e2074686973204e4654000000000000000000600082015250565b62003c6c81620033d0565b811462003c7857600080fd5b50565b62003c8681620033e4565b811462003c9257600080fd5b50565b62003ca081620033f0565b811462003cac57600080fd5b50565b62003cba816200343c565b811462003cc657600080fd5b5056fe608060405234801561001057600080fd5b50604051610620380380610620833981810160405281019061003291906100ce565b33600160006101000a81548173ffffffffffffffffffffffffffffffffffffffff021916908373ffffffffffffffffffffffffffffffffffffffff160217905550806000806101000a81548173ffffffffffffffffffffffffffffffffffffffff021916908373ffffffffffffffffffffffffffffffffffffffff16021790555050610149565b6000815190506100c881610132565b92915050565b6000602082840312156100e4576100e361012d565b5b60006100f2848285016100b9565b91505092915050565b60006101068261010d565b9050919050565b600073ffffffffffffffffffffffffffffffffffffffff82169050919050565b600080fd5b61013b816100fb565b811461014657600080fd5b50565b6104c8806101586000396000f3fe608060405234801561001057600080fd5b506004361061002b5760003560e01c806395a2251f14610030575b600080fd5b61004a60048036038101906100459190610274565b61004c565b005b600160009054906101000a900473ffffffffffffffffffffffffffffffffffffffff1673ffffffffffffffffffffffffffffffffffffffff163373ffffffffffffffffffffffffffffffffffffffff16146100dc576040517f08c379a00000000000000000000000000000000000000000000000000000000081526004016100d390610380565b60405180910390fd5b60008054906101000a900473ffffffffffffffffffffffffffffffffffffffff1673ffffffffffffffffffffffffffffffffffffffff1663a9059cbb8260008054906101000a900473ffffffffffffffffffffffffffffffffffffffff1673ffffffffffffffffffffffffffffffffffffffff166370a08231306040518263ffffffff1660e01b8152600401610172919061033c565b60206040518083038186803b15801561018a57600080fd5b505afa15801561019e573d6000803e3d6000fd5b505050506040513d601f19601f820116820180604052508101906101c291906102ce565b6040518363ffffffff1660e01b81526004016101df929190610357565b602060405180830381600087803b1580156101f957600080fd5b505af115801561020d573d6000803e3d6000fd5b505050506040513d601f19601f8201168201806040525081019061023191906102a1565b5050565b6000813590506102448161044d565b92915050565b60008151905061025981610464565b92915050565b60008151905061026e8161047b565b92915050565b60006020828403121561028a576102896103f9565b5b600061029884828501610235565b91505092915050565b6000602082840312156102b7576102b66103f9565b5b60006102c58482850161024a565b91505092915050565b6000602082840312156102e4576102e36103f9565b5b60006102f28482850161025f565b91505092915050565b610304816103b1565b82525050565b60006103176025836103a0565b9150610322826103fe565b604082019050919050565b610336816103ef565b82525050565b600060208201905061035160008301846102fb565b92915050565b600060408201905061036c60008301856102fb565b610379602083018461032d565b9392505050565b600060208201905081810360008301526103998161030a565b9050919050565b600082825260208201905092915050565b60006103bc826103cf565b9050919050565b60008115159050919050565b600073ffffffffffffffffffffffffffffffffffffffff82169050919050565b6000819050919050565b600080fd5b7f4f6e6c79207468652063726561746f7220636f6e74726163742063616e20646f60008201527f2074686174000000000000000000000000000000000000000000000000000000602082015250565b610456816103b1565b811461046157600080fd5b50565b61046d816103c3565b811461047857600080fd5b50565b610484816103ef565b811461048f57600080fd5b5056fea26469706673582212205f30c3db58c08d13a5bde82d54e46be4b8df41462f17ff96c14ae8f1265bb51d64736f6c63430008060033a2646970667358221220c028de49a102ee9bdaf45c84a889dda5d7c20df8b5199b7d70c996dc7239b61264736f6c63430008060033",
  "devdoc": {
    "kind": "dev",
    "methods": {
      "approve(address,uint256)": {
        "details": "See {IERC721-approve}."
      },
      "balanceOf(address)": {
        "details": "See {IERC721-balanceOf}."
      },
      "getApproved(uint256)": {
        "details": "See {IERC721-getApproved}."
      },
      "getInviteHoldingAddress(uint256)": {
        "details": "Getter to discover the $X holding address of a particular NFT"
      },
      "isApprovedForAll(address,address)": {
        "details": "See {IERC721-isApprovedForAll}."
      },
      "lockURI()": {
        "details": "Changes the uri admin to an empty address, preventing further changes to the URI"
      },
      "mintInviteNFT()": {
        "details": "Mints an NFT that represents .01 $X and exactly one invite. Easy to list on OpenSea"
      },
      "name()": {
        "details": "See {IERC721Metadata-name}."
      },
      "ownerOf(uint256)": {
        "details": "See {IERC721-ownerOf}."
      },
      "safeTransferFrom(address,address,uint256)": {
        "details": "See {IERC721-safeTransferFrom}."
      },
      "safeTransferFrom(address,address,uint256,bytes)": {
        "details": "See {IERC721-safeTransferFrom}."
      },
      "setApprovalForAll(address,bool)": {
        "details": "See {IERC721-setApprovalForAll}."
      },
      "supportsInterface(bytes4)": {
        "details": "See {IERC165-supportsInterface}."
      },
      "symbol()": {
        "details": "See {IERC721Metadata-symbol}."
      },
      "tokenURI(uint256)": {
        "details": "A custom URI that will hopefully point towards generative artwork in the future?"
      },
      "transferFrom(address,address,uint256)": {
        "details": "See {IERC721-transferFrom}."
      },
      "updateURIAdmin(address)": {
        "details": "Changes the address responsible for managing the URI base"
      },
      "updateURIBase(string)": {
        "details": "Changes the URI base. EX: moving visual assets to a new server and maybe new domain"
      },
      "useAndGenerateInviteNFT(uint256)": {
        "details": "Destroys NFT, sends .01 $X to msg.sender, moves .01 into a new invite holding address, issues msg.sender a new NFT representing one $X invite"
      }
    },
    "version": 1
  },
  "userdoc": {
    "kind": "user",
    "methods": {},
    "version": 1
  },
  "storageLayout": {
    "storage": [
      {
        "astId": 103,
        "contract": "contracts/WrappedXInvites.sol:WrappedXInvites",
        "label": "_name",
        "offset": 0,
        "slot": "0",
        "type": "t_string_storage"
      },
      {
        "astId": 105,
        "contract": "contracts/WrappedXInvites.sol:WrappedXInvites",
        "label": "_symbol",
        "offset": 0,
        "slot": "1",
        "type": "t_string_storage"
      },
      {
        "astId": 109,
        "contract": "contracts/WrappedXInvites.sol:WrappedXInvites",
        "label": "_owners",
        "offset": 0,
        "slot": "2",
        "type": "t_mapping(t_uint256,t_address)"
      },
      {
        "astId": 113,
        "contract": "contracts/WrappedXInvites.sol:WrappedXInvites",
        "label": "_balances",
        "offset": 0,
        "slot": "3",
        "type": "t_mapping(t_address,t_uint256)"
      },
      {
        "astId": 117,
        "contract": "contracts/WrappedXInvites.sol:WrappedXInvites",
        "label": "_tokenApprovals",
        "offset": 0,
        "slot": "4",
        "type": "t_mapping(t_uint256,t_address)"
      },
      {
        "astId": 123,
        "contract": "contracts/WrappedXInvites.sol:WrappedXInvites",
        "label": "_operatorApprovals",
        "offset": 0,
        "slot": "5",
        "type": "t_mapping(t_address,t_mapping(t_address,t_bool))"
      },
      {
        "astId": 2432,
        "contract": "contracts/WrappedXInvites.sol:WrappedXInvites",
        "label": "allowlist",
        "offset": 0,
        "slot": "6",
        "type": "t_mapping(t_address,t_bool)"
      },
      {
        "astId": 2447,
        "contract": "contracts/WrappedXInvites.sol:WrappedXInvites",
        "label": "token_ids",
        "offset": 0,
        "slot": "7",
        "type": "t_struct(Counter)1379_storage"
      },
      {
        "astId": 2449,
        "contract": "contracts/WrappedXInvites.sol:WrappedXInvites",
        "label": "uri_admin",
        "offset": 0,
        "slot": "8",
        "type": "t_address"
      },
      {
        "astId": 2451,
        "contract": "contracts/WrappedXInvites.sol:WrappedXInvites",
        "label": "custom_uri_base",
        "offset": 0,
        "slot": "9",
        "type": "t_string_storage"
      },
      {
        "astId": 2455,
        "contract": "contracts/WrappedXInvites.sol:WrappedXInvites",
        "label": "invite_holding_addresses",
        "offset": 0,
        "slot": "10",
        "type": "t_mapping(t_uint256,t_address)"
      },
      {
        "astId": 2458,
        "contract": "contracts/WrappedXInvites.sol:WrappedXInvites",
        "label": "X_token_contract",
        "offset": 0,
        "slot": "11",
        "type": "t_contract(IERC20)77"
      },
      {
        "astId": 2460,
        "contract": "contracts/WrappedXInvites.sol:WrappedXInvites",
        "label": "X_token_address",
        "offset": 0,
        "slot": "12",
        "type": "t_address"
      }
    ],
    "types": {
      "t_address": {
        "encoding": "inplace",
        "label": "address",
        "numberOfBytes": "20"
      },
      "t_bool": {
        "encoding": "inplace",
        "label": "bool",
        "numberOfBytes": "1"
      },
      "t_contract(IERC20)77": {
        "encoding": "inplace",
        "label": "contract IERC20",
        "numberOfBytes": "20"
      },
      "t_mapping(t_address,t_bool)": {
        "encoding": "mapping",
        "key": "t_address",
        "label": "mapping(address => bool)",
        "numberOfBytes": "32",
        "value": "t_bool"
      },
      "t_mapping(t_address,t_mapping(t_address,t_bool))": {
        "encoding": "mapping",
        "key": "t_address",
        "label": "mapping(address => mapping(address => bool))",
        "numberOfBytes": "32",
        "value": "t_mapping(t_address,t_bool)"
      },
      "t_mapping(t_address,t_uint256)": {
        "encoding": "mapping",
        "key": "t_address",
        "label": "mapping(address => uint256)",
        "numberOfBytes": "32",
        "value": "t_uint256"
      },
      "t_mapping(t_uint256,t_address)": {
        "encoding": "mapping",
        "key": "t_uint256",
        "label": "mapping(uint256 => address)",
        "numberOfBytes": "32",
        "value": "t_address"
      },
      "t_string_storage": {
        "encoding": "bytes",
        "label": "string",
        "numberOfBytes": "32"
      },
      "t_struct(Counter)1379_storage": {
        "encoding": "inplace",
        "label": "struct Counters.Counter",
        "members": [
          {
            "astId": 1378,
            "contract": "contracts/WrappedXInvites.sol:WrappedXInvites",
            "label": "_value",
            "offset": 0,
            "slot": "0",
            "type": "t_uint256"
          }
        ],
        "numberOfBytes": "32"
      },
      "t_uint256": {
        "encoding": "inplace",
        "label": "uint256",
        "numberOfBytes": "32"
      }
    }
  }
}